{
  "contractName": "Voting",
  "abi": [
    {
      "inputs": [
        {
          "internalType": "string[]",
          "name": "optionNames",
          "type": "string[]"
        }
      ],
      "stateMutability": "nonpayable",
      "type": "constructor"
    },
    {
      "inputs": [
        {
          "internalType": "address",
          "name": "",
          "type": "address"
        }
      ],
      "name": "hasVoted",
      "outputs": [
        {
          "internalType": "bool",
          "name": "",
          "type": "bool"
        }
      ],
      "stateMutability": "view",
      "type": "function"
    },
    {
      "inputs": [
        {
          "internalType": "uint256",
          "name": "",
          "type": "uint256"
        }
      ],
      "name": "options",
      "outputs": [
        {
          "internalType": "string",
          "name": "name",
          "type": "string"
        },
        {
          "internalType": "uint256",
          "name": "voteCount",
          "type": "uint256"
        }
      ],
      "stateMutability": "view",
      "type": "function"
    },
    {
      "inputs": [
        {
          "internalType": "uint256",
          "name": "optionIndex",
          "type": "uint256"
        }
      ],
      "name": "vote",
      "outputs": [],
      "stateMutability": "nonpayable",
      "type": "function"
    },
    {
      "inputs": [],
      "name": "getOptions",
      "outputs": [
        {
          "internalType": "string[]",
          "name": "",
          "type": "string[]"
        },
        {
          "internalType": "uint256[]",
          "name": "",
          "type": "uint256[]"
        }
      ],
      "stateMutability": "view",
      "type": "function"
    }
  ],
  "bytecode": "0x608060405234801562000010575f80fd5b506040516200126e3803806200126e833981810160405281019062000036919062000358565b5f5b8151811015620000d3575f6040518060400160405280848481518110620000645762000063620003a7565b5b602002602001015181526020015f815250908060018154018082558091505060019003905f5260205f2090600202015f909190919091505f820151815f019081620000b091906200060b565b506020820151816001015550508080620000ca906200071c565b91505062000038565b505062000768565b5f604051905090565b5f80fd5b5f80fd5b5f80fd5b5f601f19601f8301169050919050565b7f4e487b71000000000000000000000000000000000000000000000000000000005f52604160045260245ffd5b6200013882620000f0565b810181811067ffffffffffffffff821117156200015a576200015962000100565b5b80604052505050565b5f6200016e620000db565b90506200017c82826200012d565b919050565b5f67ffffffffffffffff8211156200019e576200019d62000100565b5b602082029050602081019050919050565b5f80fd5b5f80fd5b5f67ffffffffffffffff821115620001d457620001d362000100565b5b620001df82620000f0565b9050602081019050919050565b5f5b838110156200020b578082015181840152602081019050620001ee565b5f8484015250505050565b5f6200022c6200022684620001b7565b62000163565b9050828152602081018484840111156200024b576200024a620001b3565b5b62000258848285620001ec565b509392505050565b5f82601f830112620002775762000276620000ec565b5b81516200028984826020860162000216565b91505092915050565b5f620002a8620002a28462000181565b62000163565b90508083825260208201905060208402830185811115620002ce57620002cd620001af565b5b835b818110156200031c57805167ffffffffffffffff811115620002f757620002f6620000ec565b5b80860162000306898262000260565b85526020850194505050602081019050620002d0565b5050509392505050565b5f82601f8301126200033d576200033c620000ec565b5b81516200034f84826020860162000292565b91505092915050565b5f6020828403121562000370576200036f620000e4565b5b5f82015167ffffffffffffffff81111562000390576200038f620000e8565b5b6200039e8482850162000326565b91505092915050565b7f4e487b71000000000000000000000000000000000000000000000000000000005f52603260045260245ffd5b5f81519050919050565b7f4e487b71000000000000000000000000000000000000000000000000000000005f52602260045260245ffd5b5f60028204905060018216806200042357607f821691505b602082108103620004395762000438620003de565b5b50919050565b5f819050815f5260205f209050919050565b5f6020601f8301049050919050565b5f82821b905092915050565b5f600883026200049d7fffffffffffffffffffffffffffffffffffffffffffffffffffffffffffffffff8262000460565b620004a9868362000460565b95508019841693508086168417925050509392505050565b5f819050919050565b5f819050919050565b5f620004f3620004ed620004e784620004c1565b620004ca565b620004c1565b9050919050565b5f819050919050565b6200050e83620004d3565b620005266200051d82620004fa565b8484546200046c565b825550505050565b5f90565b6200053c6200052e565b6200054981848462000503565b505050565b5b818110156200057057620005645f8262000532565b6001810190506200054f565b5050565b601f821115620005bf5762000589816200043f565b620005948462000451565b81016020851015620005a4578190505b620005bc620005b38562000451565b8301826200054e565b50505b505050565b5f82821c905092915050565b5f620005e15f1984600802620005c4565b1980831691505092915050565b5f620005fb8383620005d0565b9150826002028217905092915050565b6200061682620003d4565b67ffffffffffffffff81111562000632576200063162000100565b5b6200063e82546200040b565b6200064b82828562000574565b5f60209050601f83116001811462000681575f84156200066c578287015190505b620006788582620005ee565b865550620006e7565b601f19841662000691866200043f565b5f5b82811015620006ba5784890151825560018201915060208501945060208101905062000693565b86831015620006da5784890151620006d6601f891682620005d0565b8355505b6001600288020188555050505b505050505050565b7f4e487b71000000000000000000000000000000000000000000000000000000005f52601160045260245ffd5b5f6200072882620004c1565b91507fffffffffffffffffffffffffffffffffffffffffffffffffffffffffffffffff82036200075d576200075c620006ef565b5b600182019050919050565b610af880620007765f395ff3fe608060405234801561000f575f80fd5b506004361061004a575f3560e01c80630121b93f1461004e57806309eef43e1461006a578063409e22051461009a578063cc2ee196146100cb575b5f80fd5b6100686004803603810190610063919061052e565b6100ea565b005b610084600480360381019061007f91906105b3565b610248565b60405161009191906105f8565b60405180910390f35b6100b460048036038101906100af919061052e565b610265565b6040516100c29291906106aa565b60405180910390f35b6100d3610319565b6040516100e1929190610892565b60405180910390f35b60015f3373ffffffffffffffffffffffffffffffffffffffff1673ffffffffffffffffffffffffffffffffffffffff1681526020019081526020015f205f9054906101000a900460ff1615610174576040517f08c379a000000000000000000000000000000000000000000000000000000000815260040161016b90610911565b60405180910390fd5b5f8054905081106101ba576040517f08c379a00000000000000000000000000000000000000000000000000000000081526004016101b190610979565b60405180910390fd5b5f81815481106101cd576101cc610997565b5b905f5260205f2090600202016001015f8154809291906101ec906109f1565b91905055506001805f3373ffffffffffffffffffffffffffffffffffffffff1673ffffffffffffffffffffffffffffffffffffffff1681526020019081526020015f205f6101000a81548160ff02191690831515021790555050565b6001602052805f5260405f205f915054906101000a900460ff1681565b5f8181548110610273575f80fd5b905f5260205f2090600202015f91509050805f01805461029290610a65565b80601f01602080910402602001604051908101604052809291908181526020018280546102be90610a65565b80156103095780601f106102e057610100808354040283529160200191610309565b820191905f5260205f20905b8154815290600101906020018083116102ec57829003601f168201915b5050505050908060010154905082565b6060805f808054905067ffffffffffffffff81111561033b5761033a610a95565b5b60405190808252806020026020018201604052801561036e57816020015b60608152602001906001900390816103595790505b5090505f808054905067ffffffffffffffff8111156103905761038f610a95565b5b6040519080825280602002602001820160405280156103be5781602001602082028036833780820191505090505b5090505f5b5f805490508110156104ea575f81815481106103e2576103e1610997565b5b905f5260205f2090600202015f0180546103fb90610a65565b80601f016020809104026020016040519081016040528092919081815260200182805461042790610a65565b80156104725780601f1061044957610100808354040283529160200191610472565b820191905f5260205f20905b81548152906001019060200180831161045557829003601f168201915b505050505083828151811061048a57610489610997565b5b60200260200101819052505f81815481106104a8576104a7610997565b5b905f5260205f209060020201600101548282815181106104cb576104ca610997565b5b60200260200101818152505080806104e2906109f1565b9150506103c3565b5081819350935050509091565b5f80fd5b5f819050919050565b61050d816104fb565b8114610517575f80fd5b50565b5f8135905061052881610504565b92915050565b5f60208284031215610543576105426104f7565b5b5f6105508482850161051a565b91505092915050565b5f73ffffffffffffffffffffffffffffffffffffffff82169050919050565b5f61058282610559565b9050919050565b61059281610578565b811461059c575f80fd5b50565b5f813590506105ad81610589565b92915050565b5f602082840312156105c8576105c76104f7565b5b5f6105d58482850161059f565b91505092915050565b5f8115159050919050565b6105f2816105de565b82525050565b5f60208201905061060b5f8301846105e9565b92915050565b5f81519050919050565b5f82825260208201905092915050565b5f5b8381101561064857808201518184015260208101905061062d565b5f8484015250505050565b5f601f19601f8301169050919050565b5f61066d82610611565b610677818561061b565b935061068781856020860161062b565b61069081610653565b840191505092915050565b6106a4816104fb565b82525050565b5f6040820190508181035f8301526106c28185610663565b90506106d1602083018461069b565b9392505050565b5f81519050919050565b5f82825260208201905092915050565b5f819050602082019050919050565b5f82825260208201905092915050565b5f61071b82610611565b6107258185610701565b935061073581856020860161062b565b61073e81610653565b840191505092915050565b5f6107548383610711565b905092915050565b5f602082019050919050565b5f610772826106d8565b61077c81856106e2565b93508360208202850161078e856106f2565b805f5b858110156107c957848403895281516107aa8582610749565b94506107b58361075c565b925060208a01995050600181019050610791565b50829750879550505050505092915050565b5f81519050919050565b5f82825260208201905092915050565b5f819050602082019050919050565b61080d816104fb565b82525050565b5f61081e8383610804565b60208301905092915050565b5f602082019050919050565b5f610840826107db565b61084a81856107e5565b9350610855836107f5565b805f5b8381101561088557815161086c8882610813565b97506108778361082a565b925050600181019050610858565b5085935050505092915050565b5f6040820190508181035f8301526108aa8185610768565b905081810360208301526108be8184610836565b90509392505050565b7f596f75206861766520616c726561647920766f7465642e0000000000000000005f82015250565b5f6108fb60178361061b565b9150610906826108c7565b602082019050919050565b5f6020820190508181035f830152610928816108ef565b9050919050565b7f496e76616c6964206f7074696f6e2e00000000000000000000000000000000005f82015250565b5f610963600f8361061b565b915061096e8261092f565b602082019050919050565b5f6020820190508181035f83015261099081610957565b9050919050565b7f4e487b71000000000000000000000000000000000000000000000000000000005f52603260045260245ffd5b7f4e487b71000000000000000000000000000000000000000000000000000000005f52601160045260245ffd5b5f6109fb826104fb565b91507fffffffffffffffffffffffffffffffffffffffffffffffffffffffffffffffff8203610a2d57610a2c6109c4565b5b600182019050919050565b7f4e487b71000000000000000000000000000000000000000000000000000000005f52602260045260245ffd5b5f6002820490506001821680610a7c57607f821691505b602082108103610a8f57610a8e610a38565b5b50919050565b7f4e487b71000000000000000000000000000000000000000000000000000000005f52604160045260245ffdfea264697066735822122017a61a47c7026aa57e9a84109d983752402dbbd2e08c6f9445f1a62f3a63d92f64736f6c63430008140033",
  "immutableReferences": {},
  "source": "// SPDX-License-Identifier: MIT\r\npragma solidity ^0.8.0;\r\n\r\ncontract Voting {\r\n\r\n    struct Option {\r\n        string name;\r\n        uint256 voteCount;\r\n    }\r\n\r\n    Option[] public options;\r\n\r\n    mapping(address => bool) public hasVoted;\r\n\r\n    constructor(string[] memory optionNames) {\r\n        for (uint256 i = 0; i < optionNames.length; i++) {\r\n            options.push(Option({name: optionNames[i], voteCount: 0}));\r\n        }\r\n    }\r\n\r\n    function vote(uint256 optionIndex) public {\r\n\r\n        require(!hasVoted[msg.sender], \"You have already voted.\");\r\n\r\n        require(optionIndex < options.length, \"Invalid option.\");\r\n\r\n        options[optionIndex].voteCount++;\r\n\r\n        hasVoted[msg.sender] = true;\r\n    }\r\n\r\n    function getOptions() public view returns (string[] memory, uint256[] memory) {\r\n        string[] memory optionNames = new string[](options.length);\r\n        uint256[] memory voteCounts = new uint256[](options.length);\r\n\r\n        for (uint256 i = 0; i < options.length; i++) {\r\n            optionNames[i] = options[i].name;\r\n            voteCounts[i] = options[i].voteCount;\r\n        }\r\n\r\n        return (optionNames, voteCounts);\r\n    }\r\n}\r\n",
  "sourcePath": "C:\\Users\\LuTrongTuan\\Desktop\\Thc tp tt nghip\\Blockchain\\contracts\\Voting.sol",
  "compiler": {
    "name": "solc",
    "version": "0.8.20+commit.a1b79de6.Emscripten.clang"
  },
  "schemaVersion": "3.4.14",
  "updatedAt": "2023-07-30T16:42:25.031Z",
  "devdoc": {
    "kind": "dev",
    "methods": {},
    "version": 1
  },
  "userdoc": {
    "kind": "user",
    "methods": {},
    "version": 1
  }
}